{
  "contractName": "Expense",
  "abi": [
    {
      "constant": true,
      "inputs": [],
      "name": "maxTransactions",
      "outputs": [
        {
          "name": "",
          "type": "uint256"
        }
      ],
      "payable": false,
      "stateMutability": "view",
      "type": "function"
    },
    {
      "constant": true,
      "inputs": [
        {
          "name": "",
          "type": "address"
        }
      ],
      "name": "userAddress",
      "outputs": [
        {
          "name": "",
          "type": "uint256"
        }
      ],
      "payable": false,
      "stateMutability": "view",
      "type": "function"
    },
    {
      "constant": true,
      "inputs": [],
      "name": "owner",
      "outputs": [
        {
          "name": "",
          "type": "address"
        }
      ],
      "payable": false,
      "stateMutability": "view",
      "type": "function"
    },
    {
      "constant": true,
      "inputs": [
        {
          "name": "",
          "type": "address"
        },
        {
          "name": "",
          "type": "uint256"
        }
      ],
      "name": "arrTransactions",
      "outputs": [
        {
          "name": "id",
          "type": "uint256"
        },
        {
          "name": "category",
          "type": "string"
        },
        {
          "name": "description",
          "type": "string"
        },
        {
          "name": "bill",
          "type": "string"
        },
        {
          "name": "total",
          "type": "uint256"
        },
        {
          "name": "status",
          "type": "string"
        },
        {
          "name": "email",
          "type": "string"
        },
        {
          "name": "user",
          "type": "address"
        }
      ],
      "payable": false,
      "stateMutability": "view",
      "type": "function"
    },
    {
      "constant": true,
      "inputs": [
        {
          "name": "",
          "type": "uint256"
        }
      ],
      "name": "transactions",
      "outputs": [
        {
          "name": "id",
          "type": "uint256"
        },
        {
          "name": "category",
          "type": "string"
        },
        {
          "name": "description",
          "type": "string"
        },
        {
          "name": "bill",
          "type": "string"
        },
        {
          "name": "total",
          "type": "uint256"
        },
        {
          "name": "status",
          "type": "string"
        },
        {
          "name": "email",
          "type": "string"
        },
        {
          "name": "user",
          "type": "address"
        }
      ],
      "payable": false,
      "stateMutability": "view",
      "type": "function"
    },
    {
      "constant": true,
      "inputs": [
        {
          "name": "",
          "type": "address"
        }
      ],
      "name": "lastIds",
      "outputs": [
        {
          "name": "",
          "type": "uint256"
        }
      ],
      "payable": false,
      "stateMutability": "view",
      "type": "function"
    },
    {
      "constant": true,
      "inputs": [],
      "name": "totalTransactions",
      "outputs": [
        {
          "name": "",
          "type": "uint256"
        }
      ],
      "payable": false,
      "stateMutability": "view",
      "type": "function"
    },
    {
      "inputs": [],
      "payable": false,
      "stateMutability": "nonpayable",
      "type": "constructor"
    },
    {
      "anonymous": false,
      "inputs": [
        {
          "indexed": false,
          "name": "_category",
          "type": "string"
        },
        {
          "indexed": false,
          "name": "_description",
          "type": "string"
        },
        {
          "indexed": false,
          "name": "_bill",
          "type": "string"
        },
        {
          "indexed": false,
          "name": "_total",
          "type": "uint256"
        }
      ],
      "name": "transactionEvent",
      "type": "event"
    },
    {
      "anonymous": false,
      "inputs": [
        {
          "indexed": true,
          "name": "_transactionId",
          "type": "uint256"
        }
      ],
      "name": "votedEvent",
      "type": "event"
    },
    {
      "constant": false,
      "inputs": [],
      "name": "getTransactionsLength",
      "outputs": [
        {
          "name": "",
          "type": "uint256"
        }
      ],
      "payable": false,
      "stateMutability": "nonpayable",
      "type": "function"
    },
    {
      "constant": false,
      "inputs": [
        {
          "name": "i",
          "type": "uint256"
        }
      ],
      "name": "getTransactionAt",
      "outputs": [
        {
          "name": "id",
          "type": "uint256"
        },
        {
          "name": "category",
          "type": "string"
        },
        {
          "name": "description",
          "type": "string"
        },
        {
          "name": "bill",
          "type": "string"
        },
        {
          "name": "total",
          "type": "uint256"
        },
        {
          "name": "user",
          "type": "address"
        }
      ],
      "payable": false,
      "stateMutability": "nonpayable",
      "type": "function"
    },
    {
      "constant": false,
      "inputs": [
        {
          "name": "_category",
          "type": "string"
        },
        {
          "name": "_description",
          "type": "string"
        },
        {
          "name": "_bill",
          "type": "string"
        },
        {
          "name": "_total",
          "type": "uint256"
        },
        {
          "name": "_status",
          "type": "string"
        },
        {
          "name": "_email",
          "type": "string"
        }
      ],
      "name": "addTransaction",
      "outputs": [],
      "payable": false,
      "stateMutability": "nonpayable",
      "type": "function"
    }
  ],
  "bytecode": "0x608060405234801561001057600080fd5b5060006003556110e9806100256000396000f3006080604052600436106100a35763ffffffff7c010000000000000000000000000000000000000000000000000000000060003504166324e1c18d81146100a8578063360500cc146100cf5780638da5cb5b146100fd5780639292260e1461013b57806395de9c40146102d85780639ace38c21461055a578063a747491814610572578063b9a60038146105a0578063cb28f1b2146105b5578063f21936271461070e575b600080fd5b3480156100b457600080fd5b506100bd610723565b60408051918252519081900360200190f35b3480156100db57600080fd5b506100bd73ffffffffffffffffffffffffffffffffffffffff60043516610729565b34801561010957600080fd5b5061011261073b565b6040805173ffffffffffffffffffffffffffffffffffffffff9092168252519081900360200190f35b34801561014757600080fd5b50610153600435610757565b604051808781526020018060200180602001806020018681526020018573ffffffffffffffffffffffffffffffffffffffff1673ffffffffffffffffffffffffffffffffffffffff168152602001848103845289818151815260200191508051906020019080838360005b838110156101d65781810151838201526020016101be565b50505050905090810190601f1680156102035780820380516001836020036101000a031916815260200191505b5084810383528851815288516020918201918a019080838360005b8381101561023657818101518382015260200161021e565b50505050905090810190601f1680156102635780820380516001836020036101000a031916815260200191505b50848103825287518152875160209182019189019080838360005b8381101561029657818101518382015260200161027e565b50505050905090810190601f1680156102c35780820380516001836020036101000a031916815260200191505b50995050505050505050505060405180910390f35b3480156102e457600080fd5b5061030973ffffffffffffffffffffffffffffffffffffffff600435166024356109fc565b6040518089815260200180602001806020018060200188815260200180602001806020018773ffffffffffffffffffffffffffffffffffffffff1673ffffffffffffffffffffffffffffffffffffffff16815260200186810386528d818151815260200191508051906020019080838360005b8381101561039457818101518382015260200161037c565b50505050905090810190601f1680156103c15780820380516001836020036101000a031916815260200191505b5086810385528c5181528c516020918201918e019080838360005b838110156103f45781810151838201526020016103dc565b50505050905090810190601f1680156104215780820380516001836020036101000a031916815260200191505b5086810384528b5181528b516020918201918d019080838360005b8381101561045457818101518382015260200161043c565b50505050905090810190601f1680156104815780820380516001836020036101000a031916815260200191505b5086810383528951815289516020918201918b019080838360005b838110156104b457818101518382015260200161049c565b50505050905090810190601f1680156104e15780820380516001836020036101000a031916815260200191505b5086810382528851815288516020918201918a019080838360005b838110156105145781810151838201526020016104fc565b50505050905090810190601f1680156105415780820380516001836020036101000a031916815260200191505b509d505050505050505050505050505060405180910390f35b34801561056657600080fd5b50610309600435610d1e565b34801561057e57600080fd5b506100bd73ffffffffffffffffffffffffffffffffffffffff60043516610db3565b3480156105ac57600080fd5b506100bd610dc5565b3480156105c157600080fd5b506040805160206004803580820135601f810184900484028501840190955284845261070c94369492936024939284019190819084018382808284375050604080516020601f89358b018035918201839004830284018301909452808352979a99988101979196509182019450925082915084018382808284375050604080516020601f89358b018035918201839004830284018301909452808352979a99988101979196509182019450925082915084018382808284375050604080516020601f818a01358b0180359182018390048302840183018552818452989b8a359b909a90999401975091955091820193509150819084018382808284375050604080516020601f89358b018035918201839004830284018301909452808352979a999881019791965091820194509250829150840183828082843750949750610dcb9650505050505050565b005b34801561071a57600080fd5b506100bd610fc2565b6103e881565b60056020526000908152604090205481565b60045473ffffffffffffffffffffffffffffffffffffffff1681565b6000606080606060008060028781548110151561077057fe5b90600052602060002090600802016000015460028881548110151561079157fe5b90600052602060002090600802016001016002898154811015156107b157fe5b906000526020600020906008020160020160028a8154811015156107d157fe5b906000526020600020906008020160030160028b8154811015156107f157fe5b90600052602060002090600802016004015460028c81548110151561081257fe5b600091825260209182902060076008909202010154855460408051601f6002600019600186161561010002019094169390930492830185900485028101850190915281815273ffffffffffffffffffffffffffffffffffffffff909216928791908301828280156108c45780601f10610899576101008083540402835291602001916108c4565b820191906000526020600020905b8154815290600101906020018083116108a757829003601f168201915b5050875460408051602060026001851615610100026000190190941693909304601f8101849004840282018401909252818152959a50899450925084019050828280156109525780601f1061092757610100808354040283529160200191610952565b820191906000526020600020905b81548152906001019060200180831161093557829003601f168201915b5050865460408051602060026001851615610100026000190190941693909304601f8101849004840282018401909252818152959950889450925084019050828280156109e05780601f106109b5576101008083540402835291602001916109e0565b820191906000526020600020905b8154815290600101906020018083116109c357829003601f168201915b5050505050925095509550955095509550955091939550919395565b6000602052816000526040600020816103e881101515610a1857fe5b60080201805460018083018054604080516020600295841615610100026000190190931694909404601f81018390048302850183019091528084529396509394509092909190830182828015610aaf5780601f10610a8457610100808354040283529160200191610aaf565b820191906000526020600020905b815481529060010190602001808311610a9257829003601f168201915b50505060028085018054604080516020601f6000196101006001871615020190941695909504928301859004850281018501909152818152959695945090925090830182828015610b415780601f10610b1657610100808354040283529160200191610b41565b820191906000526020600020905b815481529060010190602001808311610b2457829003601f168201915b5050505060038301805460408051602060026001851615610100026000190190941693909304601f8101849004840282018401909252818152949594935090830182828015610bd15780601f10610ba657610100808354040283529160200191610bd1565b820191906000526020600020905b815481529060010190602001808311610bb457829003601f168201915b50505050600483015460058401805460408051602060026001851615610100026000190190941693909304601f81018490048402820184019092528181529596939593945090830182828015610c685780601f10610c3d57610100808354040283529160200191610c68565b820191906000526020600020905b815481529060010190602001808311610c4b57829003601f168201915b5050505060068301805460408051602060026001851615610100026000190190941693909304601f8101849004840282018401909252818152949594935090830182828015610cf85780601f10610ccd57610100808354040283529160200191610cf8565b820191906000526020600020905b815481529060010190602001808311610cdb57829003601f168201915b5050506007909301549192505073ffffffffffffffffffffffffffffffffffffffff1688565b6002805482908110610d2c57fe5b9060005260206000209060080201600091509050806000015490806001018054600181600116156101000203166002900480601f016020809104026020016040519081016040528092919081815260200182805460018160011615610100020316600290048015610aaf5780601f10610a8457610100808354040283529160200191610aaf565b60016020526000908152604090205481565b60035481565b610dd3610fc9565b5060038054600190810191829055600480543373ffffffffffffffffffffffffffffffffffffffff199091161790819055604080516101008101825293845260208085018b81529185018a9052606085018990526080850188905260a0850187905260c0850186905273ffffffffffffffffffffffffffffffffffffffff90921660e08501526002805493840180825560009190915284517f405787fa12a823e0f2b7631cc41b3ba8828b3321ca811111fa75cd3aa3bb5ace60089095029485019081559151805191948694610ecf937f405787fa12a823e0f2b7631cc41b3ba8828b3321ca811111fa75cd3aa3bb5acf909201920190611025565b5060408201518051610eeb916002840191602090910190611025565b5060608201518051610f07916003840191602090910190611025565b506080820151600482015560a08201518051610f2d916005840191602090910190611025565b5060c08201518051610f49916006840191602090910190611025565b5060e091909101516007909101805473ffffffffffffffffffffffffffffffffffffffff191673ffffffffffffffffffffffffffffffffffffffff9092169190911790555060405184907ffff3c900d938d21d0990d786e819f29b8d05c1ef587b462b939609625b684b1690600090a250505050505050565b6002545b90565b6101006040519081016040528060008152602001606081526020016060815260200160608152602001600081526020016060815260200160608152602001600073ffffffffffffffffffffffffffffffffffffffff1681525090565b828054600181600116156101000203166002900490600052602060002090601f016020900481019282601f1061106657805160ff1916838001178555611093565b82800160010185558215611093579182015b82811115611093578251825591602001919060010190611078565b5061109f9291506110a3565b5090565b610fc691905b8082111561109f57600081556001016110a95600a165627a7a72305820d8b8c43619525ec5880c423f57e44d024e8f61c66f4ce1d808a8a395683603670029",
  "source": "pragma solidity >=0.4.0 <0.6.0;\n\ncontract Expense {\n\n    struct transaction {\n        uint id;\n        string category;\n        string description;\n        string bill;\n        uint total;\n        string status;\n        string email;\n        address user;\n    }\n\n    uint256 public constant maxTransactions = 1000;\n    // Owner => files\n    mapping(address => transaction[maxTransactions]) public arrTransactions;\n    // Owner => last files id\n    mapping(address => uint256) public lastIds;\n    transaction[] public transactions;\n    uint256 public totalTransactions;\n    address public owner;\n\n    // Store accounts that have voted\n    mapping(address => uint) public userAddress;\n\n    constructor() public {\n        totalTransactions = 0;\n    }\n\n    event transactionEvent(string _category, string _description, string  _bill, uint _total);\n\n    // voted event\n    event votedEvent (\n        uint indexed _transactionId\n    );\n\n    function getTransactionsLength() public returns (uint) {\n        return transactions.length;\n    }\n\n    function getTransactionAt(uint i) public \n    returns (uint id, string memory category, string memory description, string memory bill, uint total, address user) {\n        return (transactions[i].id, transactions[i].category, transactions[i].description, \n        transactions[i].bill, transactions[i].total, transactions[i].user );\n    }\n\n    function addTransaction (string memory _category, string memory _description, string memory _bill, uint _total, string memory _status, string memory _email) \n    public {\n        totalTransactions ++;\n        owner = msg.sender;\n        transaction memory newTransaction = transaction(totalTransactions,_category, _description,  _bill, _total, _status, _email, owner);\n        transactions.push(newTransaction);\n        // emit event\n        emit votedEvent(_total);\n    }\n\n}\n",
  "sourcePath": "/home/felefad/hacktiv8/final-project/Transport-DApp/Client/contracts/Expense.sol",
  "compiler": {
    "name": "solc",
    "version": "0.4.24+commit.e67f0147.Emscripten.clang"
  },
  "schemaVersion": "2.0.1",
  "updatedAt": "2018-12-17T04:36:50.950Z"
}