{
  "contractName": "Expense",
  "abi": [
    {
      "constant": true,
      "inputs": [],
      "name": "maxTransactions",
      "outputs": [
        {
          "name": "",
          "type": "uint256"
        }
      ],
      "payable": false,
      "stateMutability": "view",
      "type": "function"
    },
    {
      "constant": true,
      "inputs": [
        {
          "name": "",
          "type": "address"
        }
      ],
      "name": "userAddress",
      "outputs": [
        {
          "name": "",
          "type": "uint256"
        }
      ],
      "payable": false,
      "stateMutability": "view",
      "type": "function"
    },
    {
      "constant": true,
      "inputs": [],
      "name": "owner",
      "outputs": [
        {
          "name": "",
          "type": "address"
        }
      ],
      "payable": false,
      "stateMutability": "view",
      "type": "function"
    },
    {
      "constant": true,
      "inputs": [
        {
          "name": "",
          "type": "address"
        },
        {
          "name": "",
          "type": "uint256"
        }
      ],
      "name": "arrTransactions",
      "outputs": [
        {
          "name": "id",
          "type": "uint256"
        },
        {
          "name": "category",
          "type": "string"
        },
        {
          "name": "description",
          "type": "string"
        },
        {
          "name": "bill",
          "type": "string"
        },
        {
          "name": "total",
          "type": "uint256"
        },
        {
          "name": "user",
          "type": "address"
        }
      ],
      "payable": false,
      "stateMutability": "view",
      "type": "function"
    },
    {
      "constant": true,
      "inputs": [
        {
          "name": "",
          "type": "uint256"
        }
      ],
      "name": "transactions",
      "outputs": [
        {
          "name": "id",
          "type": "uint256"
        },
        {
          "name": "category",
          "type": "string"
        },
        {
          "name": "description",
          "type": "string"
        },
        {
          "name": "bill",
          "type": "string"
        },
        {
          "name": "total",
          "type": "uint256"
        },
        {
          "name": "user",
          "type": "address"
        }
      ],
      "payable": false,
      "stateMutability": "view",
      "type": "function"
    },
    {
      "constant": true,
      "inputs": [
        {
          "name": "",
          "type": "address"
        }
      ],
      "name": "lastIds",
      "outputs": [
        {
          "name": "",
          "type": "uint256"
        }
      ],
      "payable": false,
      "stateMutability": "view",
      "type": "function"
    },
    {
      "constant": true,
      "inputs": [],
      "name": "totalTransactions",
      "outputs": [
        {
          "name": "",
          "type": "uint256"
        }
      ],
      "payable": false,
      "stateMutability": "view",
      "type": "function"
    },
    {
      "inputs": [],
      "payable": false,
      "stateMutability": "nonpayable",
      "type": "constructor"
    },
    {
      "anonymous": false,
      "inputs": [
        {
          "indexed": false,
          "name": "_category",
          "type": "string"
        },
        {
          "indexed": false,
          "name": "_description",
          "type": "string"
        },
        {
          "indexed": false,
          "name": "_bill",
          "type": "string"
        },
        {
          "indexed": false,
          "name": "_total",
          "type": "uint256"
        }
      ],
      "name": "transactionEvent",
      "type": "event"
    },
    {
      "anonymous": false,
      "inputs": [
        {
          "indexed": true,
          "name": "_transactionId",
          "type": "uint256"
        }
      ],
      "name": "votedEvent",
      "type": "event"
    },
    {
      "constant": false,
      "inputs": [],
      "name": "getTransactionsLength",
      "outputs": [
        {
          "name": "",
          "type": "uint256"
        }
      ],
      "payable": false,
      "stateMutability": "nonpayable",
      "type": "function"
    },
    {
      "constant": false,
      "inputs": [
        {
          "name": "i",
          "type": "uint256"
        }
      ],
      "name": "getTransactionAt",
      "outputs": [
        {
          "name": "id",
          "type": "uint256"
        },
        {
          "name": "category",
          "type": "string"
        },
        {
          "name": "description",
          "type": "string"
        },
        {
          "name": "bill",
          "type": "string"
        },
        {
          "name": "total",
          "type": "uint256"
        },
        {
          "name": "user",
          "type": "address"
        }
      ],
      "payable": false,
      "stateMutability": "nonpayable",
      "type": "function"
    },
    {
      "constant": false,
      "inputs": [
        {
          "name": "_category",
          "type": "string"
        },
        {
          "name": "_description",
          "type": "string"
        },
        {
          "name": "_bill",
          "type": "string"
        },
        {
          "name": "_total",
          "type": "uint256"
        }
      ],
      "name": "addTransaction",
      "outputs": [],
      "payable": false,
      "stateMutability": "nonpayable",
      "type": "function"
    }
  ],
  "bytecode": "0x60806040523480156200001157600080fd5b506200001c620001ba565b50600160038190556040805160c08101825282815281518083018352600481527f746573740000000000000000000000000000000000000000000000000000000060208281019190915280830191825283518085018552600a81527f6469736b65726970736900000000000000000000000000000000000000000000818301528385015283518082019094526000808552606084019490945261271060808401523360a0840152600280549586018082559452825160069095027f405787fa12a823e0f2b7631cc41b3ba8828b3321ca811111fa75cd3aa3bb5ace81019586559151805193958694909362000138937f405787fa12a823e0f2b7631cc41b3ba8828b3321ca811111fa75cd3aa3bb5acf909101920190620001fa565b506040820151805162000156916002840191602090910190620001fa565b506060820151805162000174916003840191602090910190620001fa565b50608082015160048083019190915560a09092015160059091018054600160a060020a03909216600160a060020a031992831617905581541633179055506200029f9050565b60c06040519081016040528060008152602001606081526020016060815260200160608152602001600081526020016000600160a060020a031681525090565b828054600181600116156101000203166002900490600052602060002090601f016020900481019282601f106200023d57805160ff19168380011785556200026d565b828001600101855582156200026d579182015b828111156200026d57825182559160200191906001019062000250565b506200027b9291506200027f565b5090565b6200029c91905b808211156200027b576000815560010162000286565b90565b610c9f80620002af6000396000f3006080604052600436106100a35763ffffffff7c010000000000000000000000000000000000000000000000000000000060003504166324e1c18d81146100a8578063360500cc146100cf5780635d2fda12146100fd5780638da5cb5b146101d65780639292260e1461021457806395de9c40146103b15780639ace38c2146103e2578063a7474918146103fa578063b9a6003814610428578063f21936271461043d575b600080fd5b3480156100b457600080fd5b506100bd610452565b60408051918252519081900360200190f35b3480156100db57600080fd5b506100bd73ffffffffffffffffffffffffffffffffffffffff60043516610458565b34801561010957600080fd5b506040805160206004803580820135601f81018490048402850184019095528484526101d494369492936024939284019190819084018382808284375050604080516020601f89358b018035918201839004830284018301909452808352979a99988101979196509182019450925082915084018382808284375050604080516020601f89358b018035918201839004830284018301909452808352979a999881019791965091820194509250829150840183828082843750949750509335945061046a9350505050565b005b3480156101e257600080fd5b506101eb610617565b6040805173ffffffffffffffffffffffffffffffffffffffff9092168252519081900360200190f35b34801561022057600080fd5b5061022c600435610633565b604051808781526020018060200180602001806020018681526020018573ffffffffffffffffffffffffffffffffffffffff1673ffffffffffffffffffffffffffffffffffffffff168152602001848103845289818151815260200191508051906020019080838360005b838110156102af578181015183820152602001610297565b50505050905090810190601f1680156102dc5780820380516001836020036101000a031916815260200191505b5084810383528851815288516020918201918a019080838360005b8381101561030f5781810151838201526020016102f7565b50505050905090810190601f16801561033c5780820380516001836020036101000a031916815260200191505b50848103825287518152875160209182019189019080838360005b8381101561036f578181015183820152602001610357565b50505050905090810190601f16801561039c5780820380516001836020036101000a031916815260200191505b50995050505050505050505060405180910390f35b3480156103bd57600080fd5b5061022c73ffffffffffffffffffffffffffffffffffffffff600435166024356108d8565b3480156103ee57600080fd5b5061022c600435610ada565b34801561040657600080fd5b506100bd73ffffffffffffffffffffffffffffffffffffffff60043516610b6f565b34801561043457600080fd5b506100bd610b81565b34801561044957600080fd5b506100bd610b87565b6103e881565b60056020526000908152604090205481565b610472610b8e565b5060038054600190810191829055600480543373ffffffffffffffffffffffffffffffffffffffff1990911617908190556040805160c0810182529384526020808501898152918501889052606085018790526080850186905273ffffffffffffffffffffffffffffffffffffffff90921660a08501526002805493840180825560009190915284517f405787fa12a823e0f2b7631cc41b3ba8828b3321ca811111fa75cd3aa3bb5ace6006909502948501908155915180519194869461055f937f405787fa12a823e0f2b7631cc41b3ba8828b3321ca811111fa75cd3aa3bb5acf909201920190610bdb565b506040820151805161057b916002840191602090910190610bdb565b5060608201518051610597916003840191602090910190610bdb565b506080820151600482015560a0909101516005909101805473ffffffffffffffffffffffffffffffffffffffff191673ffffffffffffffffffffffffffffffffffffffff9092169190911790555060405182907ffff3c900d938d21d0990d786e819f29b8d05c1ef587b462b939609625b684b1690600090a25050505050565b60045473ffffffffffffffffffffffffffffffffffffffff1681565b6000606080606060008060028781548110151561064c57fe5b90600052602060002090600602016000015460028881548110151561066d57fe5b906000526020600020906006020160010160028981548110151561068d57fe5b906000526020600020906006020160020160028a8154811015156106ad57fe5b906000526020600020906006020160030160028b8154811015156106cd57fe5b90600052602060002090600602016004015460028c8154811015156106ee57fe5b600091825260209182902060056006909202010154855460408051601f6002600019600186161561010002019094169390930492830185900485028101850190915281815273ffffffffffffffffffffffffffffffffffffffff909216928791908301828280156107a05780601f10610775576101008083540402835291602001916107a0565b820191906000526020600020905b81548152906001019060200180831161078357829003601f168201915b5050875460408051602060026001851615610100026000190190941693909304601f8101849004840282018401909252818152959a508994509250840190508282801561082e5780601f106108035761010080835404028352916020019161082e565b820191906000526020600020905b81548152906001019060200180831161081157829003601f168201915b5050865460408051602060026001851615610100026000190190941693909304601f8101849004840282018401909252818152959950889450925084019050828280156108bc5780601f10610891576101008083540402835291602001916108bc565b820191906000526020600020905b81548152906001019060200180831161089f57829003601f168201915b5050505050925095509550955095509550955091939550919395565b6000602052816000526040600020816103e8811015156108f457fe5b60060201805460018083018054604080516020600295841615610100026000190190931694909404601f8101839004830285018301909152808452939650939450909290919083018282801561098b5780601f106109605761010080835404028352916020019161098b565b820191906000526020600020905b81548152906001019060200180831161096e57829003601f168201915b50505060028085018054604080516020601f6000196101006001871615020190941695909504928301859004850281018501909152818152959695945090925090830182828015610a1d5780601f106109f257610100808354040283529160200191610a1d565b820191906000526020600020905b815481529060010190602001808311610a0057829003601f168201915b5050505060038301805460408051602060026001851615610100026000190190941693909304601f8101849004840282018401909252818152949594935090830182828015610aad5780601f10610a8257610100808354040283529160200191610aad565b820191906000526020600020905b815481529060010190602001808311610a9057829003601f168201915b50505050600483015460059093015491929173ffffffffffffffffffffffffffffffffffffffff16905086565b6002805482908110610ae857fe5b9060005260206000209060060201600091509050806000015490806001018054600181600116156101000203166002900480601f01602080910402602001604051908101604052809291908181526020018280546001816001161561010002031660029004801561098b5780601f106109605761010080835404028352916020019161098b565b60016020526000908152604090205481565b60035481565b6002545b90565b60c0604051908101604052806000815260200160608152602001606081526020016060815260200160008152602001600073ffffffffffffffffffffffffffffffffffffffff1681525090565b828054600181600116156101000203166002900490600052602060002090601f016020900481019282601f10610c1c57805160ff1916838001178555610c49565b82800160010185558215610c49579182015b82811115610c49578251825591602001919060010190610c2e565b50610c55929150610c59565b5090565b610b8b91905b80821115610c555760008155600101610c5f5600a165627a7a7230582074f6a09ad3b68f504f3bc38a2d42aef9334faec8503ae5babaaa4a57ab780a900029",
  "source": "pragma solidity >=0.4.0 <0.6.0;\n\ncontract Expense {\n\n    struct transaction {\n        uint id;\n        string category;\n        string description;\n        string bill;\n        uint total;\n        address user;\n    }\n\n    uint256 public constant maxTransactions = 1000;\n    // Owner => files\n    mapping(address => transaction[maxTransactions]) public arrTransactions;\n    // Owner => last files id\n    mapping(address => uint256) public lastIds;\n    transaction[] public transactions;\n    uint256 public totalTransactions;\n    address public owner;\n\n    // Store accounts that have voted\n    mapping(address => uint) public userAddress;\n\n    constructor() public {\n        totalTransactions = 1;\n        transaction memory newTransaction = transaction(1, \"test\", \"diskeripsi\",  \"\", 10000, msg.sender);\n        transactions.push(newTransaction);\n        owner = msg.sender;\n    }\n\n    event transactionEvent(string _category, string _description, string  _bill, uint _total);\n\n    // voted event\n    event votedEvent (\n        uint indexed _transactionId\n    );\n\n    function getTransactionsLength() public returns (uint) {\n        return transactions.length;\n    }\n\n    function getTransactionAt(uint i) public \n    returns (uint id, string memory category, string memory description, string memory bill, uint total, address user) {\n        return (transactions[i].id, transactions[i].category, transactions[i].description, \n        transactions[i].bill, transactions[i].total, transactions[i].user );\n    }\n\n    function addTransaction (string memory _category, string memory _description, string memory _bill, uint _total) \n    public {\n        totalTransactions ++;\n        owner = msg.sender;\n        transaction memory newTransaction = transaction(totalTransactions,_category, _description,  _bill, _total, owner);\n        transactions.push(newTransaction);\n        // emit event\n        emit votedEvent(_total);\n    }\n\n}\n",
  "sourcePath": "/home/agung/Desktop/hacktiv8/FINAL PHASE/final-project/Transport-DApp/contracts/Expense.sol",
  "compiler": {
    "name": "solc",
    "version": "0.4.24+commit.e67f0147.Emscripten.clang"
  },
  "schemaVersion": "2.0.1",
  "updatedAt": "2018-12-14T03:50:46.259Z"
}