{
  "contractName": "Expense",
  "abi": [
    {
      "constant": true,
      "inputs": [],
      "name": "maxTransactions",
      "outputs": [
        {
          "name": "",
          "type": "uint256"
        }
      ],
      "payable": false,
      "stateMutability": "view",
      "type": "function"
    },
    {
      "constant": true,
      "inputs": [
        {
          "name": "",
          "type": "address"
        }
      ],
      "name": "userAddress",
      "outputs": [
        {
          "name": "",
          "type": "uint256"
        }
      ],
      "payable": false,
      "stateMutability": "view",
      "type": "function"
    },
    {
      "constant": true,
      "inputs": [],
      "name": "owner",
      "outputs": [
        {
          "name": "",
          "type": "address"
        }
      ],
      "payable": false,
      "stateMutability": "view",
      "type": "function"
    },
    {
      "constant": true,
      "inputs": [
        {
          "name": "",
          "type": "address"
        },
        {
          "name": "",
          "type": "uint256"
        }
      ],
      "name": "arrTransactions",
      "outputs": [
        {
          "name": "id",
          "type": "uint256"
        },
        {
          "name": "category",
          "type": "string"
        },
        {
          "name": "description",
          "type": "string"
        },
        {
          "name": "bill",
          "type": "string"
        },
        {
          "name": "total",
          "type": "uint256"
        },
        {
          "name": "status",
          "type": "string"
        },
        {
          "name": "user",
          "type": "address"
        }
      ],
      "payable": false,
      "stateMutability": "view",
      "type": "function"
    },
    {
      "constant": true,
      "inputs": [
        {
          "name": "",
          "type": "uint256"
        }
      ],
      "name": "transactions",
      "outputs": [
        {
          "name": "id",
          "type": "uint256"
        },
        {
          "name": "category",
          "type": "string"
        },
        {
          "name": "description",
          "type": "string"
        },
        {
          "name": "bill",
          "type": "string"
        },
        {
          "name": "total",
          "type": "uint256"
        },
        {
          "name": "status",
          "type": "string"
        },
        {
          "name": "user",
          "type": "address"
        }
      ],
      "payable": false,
      "stateMutability": "view",
      "type": "function"
    },
    {
      "constant": true,
      "inputs": [
        {
          "name": "",
          "type": "address"
        }
      ],
      "name": "lastIds",
      "outputs": [
        {
          "name": "",
          "type": "uint256"
        }
      ],
      "payable": false,
      "stateMutability": "view",
      "type": "function"
    },
    {
      "constant": true,
      "inputs": [],
      "name": "totalTransactions",
      "outputs": [
        {
          "name": "",
          "type": "uint256"
        }
      ],
      "payable": false,
      "stateMutability": "view",
      "type": "function"
    },
    {
      "inputs": [],
      "payable": false,
      "stateMutability": "nonpayable",
      "type": "constructor"
    },
    {
      "anonymous": false,
      "inputs": [
        {
          "indexed": false,
          "name": "_category",
          "type": "string"
        },
        {
          "indexed": false,
          "name": "_description",
          "type": "string"
        },
        {
          "indexed": false,
          "name": "_bill",
          "type": "string"
        },
        {
          "indexed": false,
          "name": "_total",
          "type": "uint256"
        }
      ],
      "name": "transactionEvent",
      "type": "event"
    },
    {
      "anonymous": false,
      "inputs": [
        {
          "indexed": true,
          "name": "_transactionId",
          "type": "uint256"
        }
      ],
      "name": "votedEvent",
      "type": "event"
    },
    {
      "constant": false,
      "inputs": [],
      "name": "getTransactionsLength",
      "outputs": [
        {
          "name": "",
          "type": "uint256"
        }
      ],
      "payable": false,
      "stateMutability": "nonpayable",
      "type": "function"
    },
    {
      "constant": false,
      "inputs": [
        {
          "name": "i",
          "type": "uint256"
        }
      ],
      "name": "getTransactionAt",
      "outputs": [
        {
          "name": "id",
          "type": "uint256"
        },
        {
          "name": "category",
          "type": "string"
        },
        {
          "name": "description",
          "type": "string"
        },
        {
          "name": "bill",
          "type": "string"
        },
        {
          "name": "total",
          "type": "uint256"
        },
        {
          "name": "user",
          "type": "address"
        }
      ],
      "payable": false,
      "stateMutability": "nonpayable",
      "type": "function"
    },
    {
      "constant": false,
      "inputs": [
        {
          "name": "_category",
          "type": "string"
        },
        {
          "name": "_description",
          "type": "string"
        },
        {
          "name": "_bill",
          "type": "string"
        },
        {
          "name": "_total",
          "type": "uint256"
        },
        {
          "name": "_status",
          "type": "string"
        }
      ],
      "name": "addTransaction",
      "outputs": [],
      "payable": false,
      "stateMutability": "nonpayable",
      "type": "function"
    }
  ],
  "bytecode": "0x60806040523480156200001157600080fd5b506200001c62000211565b50600160038190556040805160e08101825282815281518083018352600481527f746573740000000000000000000000000000000000000000000000000000000060208281019190915280830191825283518085018552600a81527f6469736b65726970736900000000000000000000000000000000000000000000818301528385015283518082018552600080825260608501919091526127106080850152845180860190955260028086527f4f4b0000000000000000000000000000000000000000000000000000000000008684015260a08501959095523360c08501528454958601808655949052825160079095027f405787fa12a823e0f2b7631cc41b3ba8828b3321ca811111fa75cd3aa3bb5ace81019586559151805193958694909362000170937f405787fa12a823e0f2b7631cc41b3ba8828b3321ca811111fa75cd3aa3bb5acf90910192019062000258565b50604082015180516200018e91600284019160209091019062000258565b5060608201518051620001ac91600384019160209091019062000258565b506080820151600482015560a08201518051620001d491600584019160209091019062000258565b5060c0919091015160069091018054600160a060020a03909216600160a060020a0319928316179055600480549091163317905550620002fd9050565b60e0604051908101604052806000815260200160608152602001606081526020016060815260200160008152602001606081526020016000600160a060020a031681525090565b828054600181600116156101000203166002900490600052602060002090601f016020900481019282601f106200029b57805160ff1916838001178555620002cb565b82800160010185558215620002cb579182015b82811115620002cb578251825591602001919060010190620002ae565b50620002d9929150620002dd565b5090565b620002fa91905b80821115620002d95760008155600101620002e4565b90565b610f88806200030d6000396000f3006080604052600436106100a35763ffffffff7c010000000000000000000000000000000000000000000000000000000060003504166324e1c18d81146100a8578063360500cc146100cf5780638da5cb5b146100fd5780639292260e1461013b57806395de9c40146102d85780639ace38c2146104f4578063a74749181461050c578063aa6d3dfb1461053a578063b9a6003814610655578063f21936271461066a575b600080fd5b3480156100b457600080fd5b506100bd61067f565b60408051918252519081900360200190f35b3480156100db57600080fd5b506100bd73ffffffffffffffffffffffffffffffffffffffff60043516610685565b34801561010957600080fd5b50610112610697565b6040805173ffffffffffffffffffffffffffffffffffffffff9092168252519081900360200190f35b34801561014757600080fd5b506101536004356106b3565b604051808781526020018060200180602001806020018681526020018573ffffffffffffffffffffffffffffffffffffffff1673ffffffffffffffffffffffffffffffffffffffff168152602001848103845289818151815260200191508051906020019080838360005b838110156101d65781810151838201526020016101be565b50505050905090810190601f1680156102035780820380516001836020036101000a031916815260200191505b5084810383528851815288516020918201918a019080838360005b8381101561023657818101518382015260200161021e565b50505050905090810190601f1680156102635780820380516001836020036101000a031916815260200191505b50848103825287518152875160209182019189019080838360005b8381101561029657818101518382015260200161027e565b50505050905090810190601f1680156102c35780820380516001836020036101000a031916815260200191505b50995050505050505050505060405180910390f35b3480156102e457600080fd5b5061030973ffffffffffffffffffffffffffffffffffffffff60043516602435610958565b60405180888152602001806020018060200180602001878152602001806020018673ffffffffffffffffffffffffffffffffffffffff1673ffffffffffffffffffffffffffffffffffffffff16815260200185810385528b818151815260200191508051906020019080838360005b83811015610390578181015183820152602001610378565b50505050905090810190601f1680156103bd5780820380516001836020036101000a031916815260200191505b5085810384528a5181528a516020918201918c019080838360005b838110156103f05781810151838201526020016103d8565b50505050905090810190601f16801561041d5780820380516001836020036101000a031916815260200191505b5085810383528951815289516020918201918b019080838360005b83811015610450578181015183820152602001610438565b50505050905090810190601f16801561047d5780820380516001836020036101000a031916815260200191505b50858103825287518152875160209182019189019080838360005b838110156104b0578181015183820152602001610498565b50505050905090810190601f1680156104dd5780820380516001836020036101000a031916815260200191505b509b50505050505050505050505060405180910390f35b34801561050057600080fd5b50610309600435610bea565b34801561051857600080fd5b506100bd73ffffffffffffffffffffffffffffffffffffffff60043516610c7f565b34801561054657600080fd5b506040805160206004803580820135601f810184900484028501840190955284845261065394369492936024939284019190819084018382808284375050604080516020601f89358b018035918201839004830284018301909452808352979a99988101979196509182019450925082915084018382808284375050604080516020601f89358b018035918201839004830284018301909452808352979a99988101979196509182019450925082915084018382808284375050604080516020601f818a01358b0180359182018390048302840183018552818452989b8a359b909a909994019750919550918201935091508190840183828082843750949750610c919650505050505050565b005b34801561066157600080fd5b506100bd610e63565b34801561067657600080fd5b506100bd610e69565b6103e881565b60056020526000908152604090205481565b60045473ffffffffffffffffffffffffffffffffffffffff1681565b600060608060606000806002878154811015156106cc57fe5b9060005260206000209060070201600001546002888154811015156106ed57fe5b906000526020600020906007020160010160028981548110151561070d57fe5b906000526020600020906007020160020160028a81548110151561072d57fe5b906000526020600020906007020160030160028b81548110151561074d57fe5b90600052602060002090600702016004015460028c81548110151561076e57fe5b600091825260209182902060066007909202010154855460408051601f6002600019600186161561010002019094169390930492830185900485028101850190915281815273ffffffffffffffffffffffffffffffffffffffff909216928791908301828280156108205780601f106107f557610100808354040283529160200191610820565b820191906000526020600020905b81548152906001019060200180831161080357829003601f168201915b5050875460408051602060026001851615610100026000190190941693909304601f8101849004840282018401909252818152959a50899450925084019050828280156108ae5780601f10610883576101008083540402835291602001916108ae565b820191906000526020600020905b81548152906001019060200180831161089157829003601f168201915b5050865460408051602060026001851615610100026000190190941693909304601f81018490048402820184019092528181529599508894509250840190508282801561093c5780601f106109115761010080835404028352916020019161093c565b820191906000526020600020905b81548152906001019060200180831161091f57829003601f168201915b5050505050925095509550955095509550955091939550919395565b6000602052816000526040600020816103e88110151561097457fe5b60070201805460018083018054604080516020600295841615610100026000190190931694909404601f81018390048302850183019091528084529396509394509092909190830182828015610a0b5780601f106109e057610100808354040283529160200191610a0b565b820191906000526020600020905b8154815290600101906020018083116109ee57829003601f168201915b50505060028085018054604080516020601f6000196101006001871615020190941695909504928301859004850281018501909152818152959695945090925090830182828015610a9d5780601f10610a7257610100808354040283529160200191610a9d565b820191906000526020600020905b815481529060010190602001808311610a8057829003601f168201915b5050505060038301805460408051602060026001851615610100026000190190941693909304601f8101849004840282018401909252818152949594935090830182828015610b2d5780601f10610b0257610100808354040283529160200191610b2d565b820191906000526020600020905b815481529060010190602001808311610b1057829003601f168201915b50505050600483015460058401805460408051602060026001851615610100026000190190941693909304601f81018490048402820184019092528181529596939593945090830182828015610bc45780601f10610b9957610100808354040283529160200191610bc4565b820191906000526020600020905b815481529060010190602001808311610ba757829003601f168201915b5050506006909301549192505073ffffffffffffffffffffffffffffffffffffffff1687565b6002805482908110610bf857fe5b9060005260206000209060070201600091509050806000015490806001018054600181600116156101000203166002900480601f016020809104026020016040519081016040528092919081815260200182805460018160011615610100020316600290048015610a0b5780601f106109e057610100808354040283529160200191610a0b565b60016020526000908152604090205481565b610c99610e70565b5060038054600190810191829055600480543373ffffffffffffffffffffffffffffffffffffffff1990911617908190556040805160e08101825293845260208085018a8152918501899052606085018890526080850187905260a0850186905273ffffffffffffffffffffffffffffffffffffffff90921660c08501526002805493840180825560009190915284517f405787fa12a823e0f2b7631cc41b3ba8828b3321ca811111fa75cd3aa3bb5ace60079095029485019081559151805191948694610d8d937f405787fa12a823e0f2b7631cc41b3ba8828b3321ca811111fa75cd3aa3bb5acf909201920190610ec4565b5060408201518051610da9916002840191602090910190610ec4565b5060608201518051610dc5916003840191602090910190610ec4565b506080820151600482015560a08201518051610deb916005840191602090910190610ec4565b5060c091909101516006909101805473ffffffffffffffffffffffffffffffffffffffff191673ffffffffffffffffffffffffffffffffffffffff9092169190911790555060405183907ffff3c900d938d21d0990d786e819f29b8d05c1ef587b462b939609625b684b1690600090a2505050505050565b60035481565b6002545b90565b60e060405190810160405280600081526020016060815260200160608152602001606081526020016000815260200160608152602001600073ffffffffffffffffffffffffffffffffffffffff1681525090565b828054600181600116156101000203166002900490600052602060002090601f016020900481019282601f10610f0557805160ff1916838001178555610f32565b82800160010185558215610f32579182015b82811115610f32578251825591602001919060010190610f17565b50610f3e929150610f42565b5090565b610e6d91905b80821115610f3e5760008155600101610f485600a165627a7a72305820417651e032e34a858e7d7772029d16212bf2c63e8d02fcc6b29a8b2d785a044b0029",
  "source": "pragma solidity >=0.4.0 <0.6.0;\n\ncontract Expense {\n\n    struct transaction {\n        uint id;\n        string category;\n        string description;\n        string bill;\n        uint total;\n        string status;\n        address user;\n    }\n\n    uint256 public constant maxTransactions = 1000;\n    // Owner => files\n    mapping(address => transaction[maxTransactions]) public arrTransactions;\n    // Owner => last files id\n    mapping(address => uint256) public lastIds;\n    transaction[] public transactions;\n    uint256 public totalTransactions;\n    address public owner;\n\n    // Store accounts that have voted\n    mapping(address => uint) public userAddress;\n\n    constructor() public {\n        totalTransactions = 1;\n        transaction memory newTransaction = transaction(1, \"test\", \"diskeripsi\",  \"\", 10000, \"OK\", msg.sender);\n        transactions.push(newTransaction);\n        owner = msg.sender;\n    }\n\n    event transactionEvent(string _category, string _description, string  _bill, uint _total);\n\n    // voted event\n    event votedEvent (\n        uint indexed _transactionId\n    );\n\n    function getTransactionsLength() public returns (uint) {\n        return transactions.length;\n    }\n\n    function getTransactionAt(uint i) public \n    returns (uint id, string memory category, string memory description, string memory bill, uint total, address user) {\n        return (transactions[i].id, transactions[i].category, transactions[i].description, \n        transactions[i].bill, transactions[i].total, transactions[i].user );\n    }\n\n    function addTransaction (string memory _category, string memory _description, string memory _bill, uint _total, string memory _status) \n    public {\n        totalTransactions ++;\n        owner = msg.sender;\n        transaction memory newTransaction = transaction(totalTransactions,_category, _description,  _bill, _total, _status, owner);\n        transactions.push(newTransaction);\n        // emit event\n        emit votedEvent(_total);\n    }\n\n}\n",
  "sourcePath": "/home/agung/Desktop/hacktiv8/FINAL PHASE/final-project/Transport-DApp/contracts/Expense.sol",
  "compiler": {
    "name": "solc",
    "version": "0.4.24+commit.e67f0147.Emscripten.clang"
  },
  "schemaVersion": "2.0.1",
  "updatedAt": "2018-12-14T07:37:19.917Z"
}